{
  "contractName": "CourseMarketplace",
  "abi": [
    {
      "inputs": [],
      "stateMutability": "nonpayable",
      "type": "constructor"
    },
    {
      "inputs": [],
      "name": "CourseHasOwner",
      "type": "error"
    },
    {
      "inputs": [],
      "name": "OnlyOwner",
      "type": "error"
    },
    {
      "inputs": [
        {
          "internalType": "bytes16",
          "name": "courseId",
          "type": "bytes16"
        },
        {
          "internalType": "bytes32",
          "name": "proof",
          "type": "bytes32"
        }
      ],
      "name": "purchaseCourse",
      "outputs": [],
      "stateMutability": "payable",
      "type": "function",
      "payable": true
    },
    {
      "inputs": [
        {
          "internalType": "address",
          "name": "newOwner",
          "type": "address"
        }
      ],
      "name": "transferOwnership",
      "outputs": [],
      "stateMutability": "nonpayable",
      "type": "function"
    },
    {
      "inputs": [],
      "name": "getCoursesCount",
      "outputs": [
        {
          "internalType": "uint256",
          "name": "",
          "type": "uint256"
        }
      ],
      "stateMutability": "view",
      "type": "function",
      "constant": true
    },
    {
      "inputs": [
        {
          "internalType": "uint256",
          "name": "index",
          "type": "uint256"
        }
      ],
      "name": "getCourseHashAtIndex",
      "outputs": [
        {
          "internalType": "bytes32",
          "name": "",
          "type": "bytes32"
        }
      ],
      "stateMutability": "view",
      "type": "function",
      "constant": true
    },
    {
      "inputs": [
        {
          "internalType": "bytes32",
          "name": "courseHash",
          "type": "bytes32"
        }
      ],
      "name": "getCourseByHash",
      "outputs": [
        {
          "components": [
            {
              "internalType": "uint256",
              "name": "id",
              "type": "uint256"
            },
            {
              "internalType": "uint256",
              "name": "price",
              "type": "uint256"
            },
            {
              "internalType": "bytes32",
              "name": "proof",
              "type": "bytes32"
            },
            {
              "internalType": "address",
              "name": "owner",
              "type": "address"
            },
            {
              "internalType": "enum CourseMarketplace.State",
              "name": "state",
              "type": "uint8"
            }
          ],
          "internalType": "struct CourseMarketplace.Course",
          "name": "",
          "type": "tuple"
        }
      ],
      "stateMutability": "view",
      "type": "function",
      "constant": true
    },
    {
      "inputs": [],
      "name": "getContractOwner",
      "outputs": [
        {
          "internalType": "address",
          "name": "",
          "type": "address"
        }
      ],
      "stateMutability": "view",
      "type": "function",
      "constant": true
    }
  ],
  "bytecode": "0x608060405234801561001057600080fd5b506100203361002560201b60201c565b610069565b80600360006101000a81548173ffffffffffffffffffffffffffffffffffffffff021916908373ffffffffffffffffffffffffffffffffffffffff16021790555050565b610a93806100786000396000f3fe6080604052600436106100555760003560e01c80631dcdf2151461005a578063442890d51461008557806362e4e6ac146100b05780636d11290b146100ed578063d76821cb1461012a578063f2fde38b14610146575b600080fd5b34801561006657600080fd5b5061006f61016f565b60405161007c91906105d7565b60405180910390f35b34801561009157600080fd5b5061009a610179565b6040516100a79190610633565b60405180910390f35b3480156100bc57600080fd5b506100d760048036038101906100d29190610689565b6101a3565b6040516100e491906107c2565b60405180910390f35b3480156100f957600080fd5b50610114600480360381019061010f9190610809565b61027e565b6040516101219190610845565b60405180910390f35b610144600480360381019061013f91906108b8565b61029b565b005b34801561015257600080fd5b5061016d60048036038101906101689190610924565b61043b565b005b6000600254905090565b6000600360009054906101000a900473ffffffffffffffffffffffffffffffffffffffff16905090565b6101ab610564565b6000808381526020019081526020016000206040518060a00160405290816000820154815260200160018201548152602001600282015481526020016003820160009054906101000a900473ffffffffffffffffffffffffffffffffffffffff1673ffffffffffffffffffffffffffffffffffffffff1673ffffffffffffffffffffffffffffffffffffffff1681526020016003820160149054906101000a900460ff166002811115610261576102606106e3565b5b6002811115610273576102726106e3565b5b815250509050919050565b600060016000838152602001908152602001600020549050919050565b600082336040516020016102b09291906109ba565b6040516020818303038152906040528051906020012090506102d1816104b3565b15610308576040517fb0fc2d9700000000000000000000000000000000000000000000000000000000815260040160405180910390fd5b60006002600081548092919061031d90610a15565b9190505590508160016000838152602001908152602001600020819055506040518060a001604052808281526020013481526020018481526020013373ffffffffffffffffffffffffffffffffffffffff16815260200160006002811115610388576103876106e3565b5b81525060008084815260200190815260200160002060008201518160000155602082015181600101556040820151816002015560608201518160030160006101000a81548173ffffffffffffffffffffffffffffffffffffffff021916908373ffffffffffffffffffffffffffffffffffffffff16021790555060808201518160030160146101000a81548160ff0219169083600281111561042d5761042c6106e3565b5b021790555090505050505050565b610443610179565b73ffffffffffffffffffffffffffffffffffffffff163373ffffffffffffffffffffffffffffffffffffffff16146104a7576040517f5fc483c500000000000000000000000000000000000000000000000000000000815260040160405180910390fd5b6104b081610520565b50565b60003373ffffffffffffffffffffffffffffffffffffffff1660008084815260200190815260200160002060030160009054906101000a900473ffffffffffffffffffffffffffffffffffffffff1673ffffffffffffffffffffffffffffffffffffffff16149050919050565b80600360006101000a81548173ffffffffffffffffffffffffffffffffffffffff021916908373ffffffffffffffffffffffffffffffffffffffff16021790555050565b6040518060a00160405280600081526020016000815260200160008019168152602001600073ffffffffffffffffffffffffffffffffffffffff168152602001600060028111156105b8576105b76106e3565b5b81525090565b6000819050919050565b6105d1816105be565b82525050565b60006020820190506105ec60008301846105c8565b92915050565b600073ffffffffffffffffffffffffffffffffffffffff82169050919050565b600061061d826105f2565b9050919050565b61062d81610612565b82525050565b60006020820190506106486000830184610624565b92915050565b600080fd5b6000819050919050565b61066681610653565b811461067157600080fd5b50565b6000813590506106838161065d565b92915050565b60006020828403121561069f5761069e61064e565b5b60006106ad84828501610674565b91505092915050565b6106bf816105be565b82525050565b6106ce81610653565b82525050565b6106dd81610612565b82525050565b7f4e487b7100000000000000000000000000000000000000000000000000000000600052602160045260246000fd5b60038110610723576107226106e3565b5b50565b600081905061073482610712565b919050565b600061074482610726565b9050919050565b61075481610739565b82525050565b60a08201600082015161077060008501826106b6565b50602082015161078360208501826106b6565b50604082015161079660408501826106c5565b5060608201516107a960608501826106d4565b5060808201516107bc608085018261074b565b50505050565b600060a0820190506107d7600083018461075a565b92915050565b6107e6816105be565b81146107f157600080fd5b50565b600081359050610803816107dd565b92915050565b60006020828403121561081f5761081e61064e565b5b600061082d848285016107f4565b91505092915050565b61083f81610653565b82525050565b600060208201905061085a6000830184610836565b92915050565b60007fffffffffffffffffffffffffffffffff0000000000000000000000000000000082169050919050565b61089581610860565b81146108a057600080fd5b50565b6000813590506108b28161088c565b92915050565b600080604083850312156108cf576108ce61064e565b5b60006108dd858286016108a3565b92505060206108ee85828601610674565b9150509250929050565b61090181610612565b811461090c57600080fd5b50565b60008135905061091e816108f8565b92915050565b60006020828403121561093a5761093961064e565b5b60006109488482850161090f565b91505092915050565b6000819050919050565b61096c61096782610860565b610951565b82525050565b60008160601b9050919050565b600061098a82610972565b9050919050565b600061099c8261097f565b9050919050565b6109b46109af82610612565b610991565b82525050565b60006109c6828561095b565b6010820191506109d682846109a3565b6014820191508190509392505050565b7f4e487b7100000000000000000000000000000000000000000000000000000000600052601160045260246000fd5b6000610a20826105be565b91507fffffffffffffffffffffffffffffffffffffffffffffffffffffffffffffffff8203610a5257610a516109e6565b5b60018201905091905056fea2646970667358221220f0d44af3d9e768ae98f2ed6e6dbc2dca601a285e6e433fcb90f9268805f70c0664736f6c634300080d0033",
  "immutableReferences": {},
  "source": "// SPDX-License-Identifier: MIT\npragma solidity >=0.4.22 <0.9.0;\n\ncontract CourseMarketplace {\n    enum State {\n        Purchased,\n        Activated,\n        Deactivated\n    }\n\n    struct Course {\n        uint256 id; // 32\n        uint256 price; // 32\n        bytes32 proof; // 32\n        address owner; // 20\n        State state; // 1\n    }\n\n    mapping(bytes32 => Course) private ownedCourses;\n    mapping(uint256 => bytes32) private ownedCourseHash;\n\n    uint256 private totalOwnedCourses;\n\n    address payable private owner;\n\n    constructor() {\n        setContractOwner(msg.sender);\n    }\n\n    /// Course has already a Owner!\n    error CourseHasOwner();\n\n    /// Only owner has an access!\n    error OnlyOwner();\n\n    modifier onlyOwner() {\n        if (msg.sender != getContractOwner()) {\n            revert OnlyOwner();\n        }\n        _;\n    }\n\n    function purchaseCourse(bytes16 courseId, bytes32 proof) external payable {\n        bytes32 courseHash = keccak256(abi.encodePacked(courseId, msg.sender));\n\n        if (hasCourseOwnership(courseHash)) {\n            revert CourseHasOwner();\n        }\n\n        uint256 id = totalOwnedCourses++;\n        ownedCourseHash[id] = courseHash;\n        ownedCourses[courseHash] = Course({\n            id: id,\n            price: msg.value,\n            proof: proof,\n            owner: msg.sender,\n            state: State.Purchased\n        });\n    }\n\n    function transferOwnership(address newOwner) external onlyOwner {\n        setContractOwner(newOwner);\n    }\n\n    function getCoursesCount() external view returns (uint256) {\n        return totalOwnedCourses;\n    }\n\n    function getCourseHashAtIndex(uint256 index)\n        external\n        view\n        returns (bytes32)\n    {\n        return ownedCourseHash[index];\n    }\n\n    function getCourseByHash(bytes32 courseHash)\n        external\n        view\n        returns (Course memory)\n    {\n        return ownedCourses[courseHash];\n    }\n\n    function getContractOwner() public view returns (address) {\n        return owner;\n    }\n\n    function setContractOwner(address newOwner) private {\n        owner = payable(newOwner);\n    }\n\n    function hasCourseOwnership(bytes32 courseHash)\n        private\n        view\n        returns (bool)\n    {\n        return ownedCourses[courseHash].owner == msg.sender;\n    }\n}\n",
  "sourcePath": "/Users/cipher/Documents/react/blockchain/marketplace-eth/contracts/CourseMarketplace.sol",
  "compiler": {
    "name": "solc",
    "version": "0.8.13+commit.abaa5c0e.Emscripten.clang"
  },
  "schemaVersion": "3.4.6",
  "updatedAt": "2022-04-21T10:31:45.594Z",
  "networkType": "ethereum",
  "devdoc": {
    "kind": "dev",
    "methods": {},
    "version": 1
  },
  "userdoc": {
    "errors": {
      "CourseHasOwner()": [
        {
          "notice": "Course has already a Owner!"
        }
      ],
      "OnlyOwner()": [
        {
          "notice": "Only owner has an access!"
        }
      ]
    },
    "kind": "user",
    "methods": {},
    "version": 1
  }
}