{
  "contractName": "CourseMarketplace",
  "abi": [
    {
      "inputs": [],
      "stateMutability": "nonpayable",
      "type": "constructor"
    },
    {
      "inputs": [],
      "name": "CourseHasOwner",
      "type": "error"
    },
    {
      "inputs": [],
      "name": "CourseIsNotCreated",
      "type": "error"
    },
    {
      "inputs": [],
      "name": "InvalidState",
      "type": "error"
    },
    {
      "inputs": [],
      "name": "OnlyOwner",
      "type": "error"
    },
    {
      "inputs": [],
      "name": "SenderIsNotCourseOwner",
      "type": "error"
    },
    {
      "inputs": [],
      "name": "isStopped",
      "outputs": [
        {
          "internalType": "bool",
          "name": "",
          "type": "bool"
        }
      ],
      "stateMutability": "view",
      "type": "function",
      "constant": true
    },
    {
      "stateMutability": "payable",
      "type": "receive",
      "payable": true
    },
    {
      "inputs": [
        {
          "internalType": "uint256",
          "name": "amount",
          "type": "uint256"
        }
      ],
      "name": "withdraw",
      "outputs": [],
      "stateMutability": "nonpayable",
      "type": "function"
    },
    {
      "inputs": [],
      "name": "emergencyWithdraw",
      "outputs": [],
      "stateMutability": "nonpayable",
      "type": "function"
    },
    {
      "inputs": [],
      "name": "selfDestruct",
      "outputs": [],
      "stateMutability": "nonpayable",
      "type": "function"
    },
    {
      "inputs": [],
      "name": "stopContract",
      "outputs": [],
      "stateMutability": "nonpayable",
      "type": "function"
    },
    {
      "inputs": [],
      "name": "resumeContract",
      "outputs": [],
      "stateMutability": "nonpayable",
      "type": "function"
    },
    {
      "inputs": [
        {
          "internalType": "bytes16",
          "name": "courseId",
          "type": "bytes16"
        },
        {
          "internalType": "bytes32",
          "name": "proof",
          "type": "bytes32"
        }
      ],
      "name": "purchaseCourse",
      "outputs": [],
      "stateMutability": "payable",
      "type": "function",
      "payable": true
    },
    {
      "inputs": [
        {
          "internalType": "bytes32",
          "name": "courseHash",
          "type": "bytes32"
        }
      ],
      "name": "activateCourse",
      "outputs": [],
      "stateMutability": "nonpayable",
      "type": "function"
    },
    {
      "inputs": [
        {
          "internalType": "bytes32",
          "name": "courseHash",
          "type": "bytes32"
        }
      ],
      "name": "repurchaseCourse",
      "outputs": [],
      "stateMutability": "payable",
      "type": "function",
      "payable": true
    },
    {
      "inputs": [
        {
          "internalType": "address",
          "name": "newOwner",
          "type": "address"
        }
      ],
      "name": "transferOwnership",
      "outputs": [],
      "stateMutability": "nonpayable",
      "type": "function"
    },
    {
      "inputs": [],
      "name": "getCoursesCount",
      "outputs": [
        {
          "internalType": "uint256",
          "name": "",
          "type": "uint256"
        }
      ],
      "stateMutability": "view",
      "type": "function",
      "constant": true
    },
    {
      "inputs": [
        {
          "internalType": "uint256",
          "name": "index",
          "type": "uint256"
        }
      ],
      "name": "getCourseHashAtIndex",
      "outputs": [
        {
          "internalType": "bytes32",
          "name": "",
          "type": "bytes32"
        }
      ],
      "stateMutability": "view",
      "type": "function",
      "constant": true
    },
    {
      "inputs": [
        {
          "internalType": "bytes32",
          "name": "courseHash",
          "type": "bytes32"
        }
      ],
      "name": "deactivateCourse",
      "outputs": [],
      "stateMutability": "nonpayable",
      "type": "function"
    },
    {
      "inputs": [
        {
          "internalType": "bytes32",
          "name": "courseHash",
          "type": "bytes32"
        }
      ],
      "name": "getCourseByHash",
      "outputs": [
        {
          "components": [
            {
              "internalType": "uint256",
              "name": "id",
              "type": "uint256"
            },
            {
              "internalType": "uint256",
              "name": "price",
              "type": "uint256"
            },
            {
              "internalType": "bytes32",
              "name": "proof",
              "type": "bytes32"
            },
            {
              "internalType": "address",
              "name": "owner",
              "type": "address"
            },
            {
              "internalType": "enum CourseMarketplace.State",
              "name": "state",
              "type": "uint8"
            }
          ],
          "internalType": "struct CourseMarketplace.Course",
          "name": "",
          "type": "tuple"
        }
      ],
      "stateMutability": "view",
      "type": "function",
      "constant": true
    },
    {
      "inputs": [],
      "name": "getContractOwner",
      "outputs": [
        {
          "internalType": "address",
          "name": "",
          "type": "address"
        }
      ],
      "stateMutability": "view",
      "type": "function",
      "constant": true
    }
  ],
  "bytecode": "0x60806040526000600360146101000a81548160ff02191690831515021790555034801561002b57600080fd5b5061003b3361004060201b60201c565b610084565b80600360006101000a81548173ffffffffffffffffffffffffffffffffffffffff021916908373ffffffffffffffffffffffffffffffffffffffff16021790555050565b6117e0806100936000396000f3fe6080604052600436106100ec5760003560e01c806362e4e6ac1161008a578063c4bc5da511610059578063c4bc5da5146102b8578063d76821cb146102cf578063db2e21bc146102eb578063f2fde38b14610302576100f3565b806362e4e6ac146101fe5780636d11290b1461023b578063935d7e6d146102785780639cb8a26a146102a1576100f3565b806339262572116100c657806339262572146101635780633f683b6a1461018c578063442890d5146101b75780636136e1eb146101e2576100f3565b806312253a6c146100f85780631dcdf2151461010f5780632e1a7d4d1461013a576100f3565b366100f357005b600080fd5b34801561010457600080fd5b5061010d61032b565b005b34801561011b57600080fd5b506101246103b4565b60405161013191906111bf565b60405180910390f35b34801561014657600080fd5b50610161600480360381019061015c919061120b565b6103be565b005b34801561016f57600080fd5b5061018a6004803603810190610185919061126e565b6104fc565b005b34801561019857600080fd5b506101a1610677565b6040516101ae91906112b6565b60405180910390f35b3480156101c357600080fd5b506101cc61068a565b6040516101d99190611312565b60405180910390f35b6101fc60048036038101906101f7919061126e565b6106b4565b005b34801561020a57600080fd5b506102256004803603810190610220919061126e565b61080a565b6040516102329190611439565b60405180910390f35b34801561024757600080fd5b50610262600480360381019061025d919061120b565b6108e5565b60405161026f9190611463565b60405180910390f35b34801561028457600080fd5b5061029f600480360381019061029a919061126e565b610902565b005b3480156102ad57600080fd5b506102b6610b5c565b005b3480156102c457600080fd5b506102cd610c1c565b005b6102e960048036038101906102e491906114d6565b610ca5565b005b3480156102f757600080fd5b50610300610e5f565b005b34801561030e57600080fd5b5061032960048036038101906103249190611542565b610fb5565b005b61033361068a565b73ffffffffffffffffffffffffffffffffffffffff163373ffffffffffffffffffffffffffffffffffffffff1614610397576040517f5fc483c500000000000000000000000000000000000000000000000000000000815260040160405180910390fd5b6001600360146101000a81548160ff021916908315150217905550565b6000600254905090565b6103c661068a565b73ffffffffffffffffffffffffffffffffffffffff163373ffffffffffffffffffffffffffffffffffffffff161461042a576040517f5fc483c500000000000000000000000000000000000000000000000000000000815260040160405180910390fd5b6000600360009054906101000a900473ffffffffffffffffffffffffffffffffffffffff1673ffffffffffffffffffffffffffffffffffffffff1682604051610472906115a0565b60006040518083038185875af1925050503d80600081146104af576040519150601f19603f3d011682016040523d82523d6000602084013e6104b4565b606091505b50509050806104f8576040517f08c379a00000000000000000000000000000000000000000000000000000000081526004016104ef90611612565b60405180910390fd5b5050565b61050461068a565b73ffffffffffffffffffffffffffffffffffffffff163373ffffffffffffffffffffffffffffffffffffffff1614610568576040517f5fc483c500000000000000000000000000000000000000000000000000000000815260040160405180910390fd5b600360149054906101000a900460ff161561058257600080fd5b61058b8161102d565b6105c1576040517f4db0c48300000000000000000000000000000000000000000000000000000000815260040160405180910390fd5b60008060008381526020019081526020016000209050600060028111156105eb576105ea61135a565b5b8160030160149054906101000a900460ff16600281111561060f5761060e61135a565b5b14610646576040517fbaf3f0f700000000000000000000000000000000000000000000000000000000815260040160405180910390fd5b60018160030160146101000a81548160ff0219169083600281111561066e5761066d61135a565b5b02179055505050565b600360149054906101000a900460ff1681565b6000600360009054906101000a900473ffffffffffffffffffffffffffffffffffffffff16905090565b600360149054906101000a900460ff16156106ce57600080fd5b6106d78161102d565b61070d576040517f4db0c48300000000000000000000000000000000000000000000000000000000815260040160405180910390fd5b6107168161109b565b61074c576040517fcce31cc400000000000000000000000000000000000000000000000000000000815260040160405180910390fd5b600080600083815260200190815260200160002090506002808111156107755761077461135a565b5b8160030160149054906101000a900460ff1660028111156107995761079861135a565b5b146107d0576040517fbaf3f0f700000000000000000000000000000000000000000000000000000000815260040160405180910390fd5b60008160030160146101000a81548160ff021916908360028111156107f8576107f761135a565b5b02179055503481600101819055505050565b61081261114c565b6000808381526020019081526020016000206040518060a00160405290816000820154815260200160018201548152602001600282015481526020016003820160009054906101000a900473ffffffffffffffffffffffffffffffffffffffff1673ffffffffffffffffffffffffffffffffffffffff1673ffffffffffffffffffffffffffffffffffffffff1681526020016003820160149054906101000a900460ff1660028111156108c8576108c761135a565b5b60028111156108da576108d961135a565b5b815250509050919050565b600060016000838152602001908152602001600020549050919050565b61090a61068a565b73ffffffffffffffffffffffffffffffffffffffff163373ffffffffffffffffffffffffffffffffffffffff161461096e576040517f5fc483c500000000000000000000000000000000000000000000000000000000815260040160405180910390fd5b600360149054906101000a900460ff161561098857600080fd5b6109918161102d565b6109c7576040517f4db0c48300000000000000000000000000000000000000000000000000000000815260040160405180910390fd5b60008060008381526020019081526020016000209050600060028111156109f1576109f061135a565b5b8160030160149054906101000a900460ff166002811115610a1557610a1461135a565b5b14610a4c576040517fbaf3f0f700000000000000000000000000000000000000000000000000000000815260040160405180910390fd5b60008160030160009054906101000a900473ffffffffffffffffffffffffffffffffffffffff1673ffffffffffffffffffffffffffffffffffffffff168260010154604051610a9a906115a0565b60006040518083038185875af1925050503d8060008114610ad7576040519150601f19603f3d011682016040523d82523d6000602084013e610adc565b606091505b5050905080610b20576040517f08c379a0000000000000000000000000000000000000000000000000000000008152600401610b179061167e565b60405180910390fd5b60028260030160146101000a81548160ff02191690836002811115610b4857610b4761135a565b5b021790555060008260010181905550505050565b600360149054906101000a900460ff16610b7557600080fd5b610b7d61068a565b73ffffffffffffffffffffffffffffffffffffffff163373ffffffffffffffffffffffffffffffffffffffff1614610be1576040517f5fc483c500000000000000000000000000000000000000000000000000000000815260040160405180910390fd5b600360009054906101000a900473ffffffffffffffffffffffffffffffffffffffff1673ffffffffffffffffffffffffffffffffffffffff16ff5b610c2461068a565b73ffffffffffffffffffffffffffffffffffffffff163373ffffffffffffffffffffffffffffffffffffffff1614610c88576040517f5fc483c500000000000000000000000000000000000000000000000000000000815260040160405180910390fd5b6000600360146101000a81548160ff021916908315150217905550565b600360149054906101000a900460ff1615610cbf57600080fd5b60008233604051602001610cd4929190611707565b604051602081830303815290604052805190602001209050610cf58161109b565b15610d2c576040517fb0fc2d9700000000000000000000000000000000000000000000000000000000815260040160405180910390fd5b600060026000815480929190610d4190611762565b9190505590508160016000838152602001908152602001600020819055506040518060a001604052808281526020013481526020018481526020013373ffffffffffffffffffffffffffffffffffffffff16815260200160006002811115610dac57610dab61135a565b5b81525060008084815260200190815260200160002060008201518160000155602082015181600101556040820151816002015560608201518160030160006101000a81548173ffffffffffffffffffffffffffffffffffffffff021916908373ffffffffffffffffffffffffffffffffffffffff16021790555060808201518160030160146101000a81548160ff02191690836002811115610e5157610e5061135a565b5b021790555090505050505050565b600360149054906101000a900460ff16610e7857600080fd5b610e8061068a565b73ffffffffffffffffffffffffffffffffffffffff163373ffffffffffffffffffffffffffffffffffffffff1614610ee4576040517f5fc483c500000000000000000000000000000000000000000000000000000000815260040160405180910390fd5b6000600360009054906101000a900473ffffffffffffffffffffffffffffffffffffffff1673ffffffffffffffffffffffffffffffffffffffff1647604051610f2c906115a0565b60006040518083038185875af1925050503d8060008114610f69576040519150601f19603f3d011682016040523d82523d6000602084013e610f6e565b606091505b5050905080610fb2576040517f08c379a0000000000000000000000000000000000000000000000000000000008152600401610fa990611612565b60405180910390fd5b50565b610fbd61068a565b73ffffffffffffffffffffffffffffffffffffffff163373ffffffffffffffffffffffffffffffffffffffff1614611021576040517f5fc483c500000000000000000000000000000000000000000000000000000000815260040160405180910390fd5b61102a81611108565b50565b60008073ffffffffffffffffffffffffffffffffffffffff1660008084815260200190815260200160002060030160009054906101000a900473ffffffffffffffffffffffffffffffffffffffff1673ffffffffffffffffffffffffffffffffffffffff1614159050919050565b60003373ffffffffffffffffffffffffffffffffffffffff1660008084815260200190815260200160002060030160009054906101000a900473ffffffffffffffffffffffffffffffffffffffff1673ffffffffffffffffffffffffffffffffffffffff16149050919050565b80600360006101000a81548173ffffffffffffffffffffffffffffffffffffffff021916908373ffffffffffffffffffffffffffffffffffffffff16021790555050565b6040518060a00160405280600081526020016000815260200160008019168152602001600073ffffffffffffffffffffffffffffffffffffffff168152602001600060028111156111a05761119f61135a565b5b81525090565b6000819050919050565b6111b9816111a6565b82525050565b60006020820190506111d460008301846111b0565b92915050565b600080fd5b6111e8816111a6565b81146111f357600080fd5b50565b600081359050611205816111df565b92915050565b600060208284031215611221576112206111da565b5b600061122f848285016111f6565b91505092915050565b6000819050919050565b61124b81611238565b811461125657600080fd5b50565b60008135905061126881611242565b92915050565b600060208284031215611284576112836111da565b5b600061129284828501611259565b91505092915050565b60008115159050919050565b6112b08161129b565b82525050565b60006020820190506112cb60008301846112a7565b92915050565b600073ffffffffffffffffffffffffffffffffffffffff82169050919050565b60006112fc826112d1565b9050919050565b61130c816112f1565b82525050565b60006020820190506113276000830184611303565b92915050565b611336816111a6565b82525050565b61134581611238565b82525050565b611354816112f1565b82525050565b7f4e487b7100000000000000000000000000000000000000000000000000000000600052602160045260246000fd5b6003811061139a5761139961135a565b5b50565b60008190506113ab82611389565b919050565b60006113bb8261139d565b9050919050565b6113cb816113b0565b82525050565b60a0820160008201516113e7600085018261132d565b5060208201516113fa602085018261132d565b50604082015161140d604085018261133c565b506060820151611420606085018261134b565b50608082015161143360808501826113c2565b50505050565b600060a08201905061144e60008301846113d1565b92915050565b61145d81611238565b82525050565b60006020820190506114786000830184611454565b92915050565b60007fffffffffffffffffffffffffffffffff0000000000000000000000000000000082169050919050565b6114b38161147e565b81146114be57600080fd5b50565b6000813590506114d0816114aa565b92915050565b600080604083850312156114ed576114ec6111da565b5b60006114fb858286016114c1565b925050602061150c85828601611259565b9150509250929050565b61151f816112f1565b811461152a57600080fd5b50565b60008135905061153c81611516565b92915050565b600060208284031215611558576115576111da565b5b60006115668482850161152d565b91505092915050565b600081905092915050565b50565b600061158a60008361156f565b91506115958261157a565b600082019050919050565b60006115ab8261157d565b9150819050919050565b600082825260208201905092915050565b7f5472616e73666572206661696c65642e00000000000000000000000000000000600082015250565b60006115fc6010836115b5565b9150611607826115c6565b602082019050919050565b6000602082019050818103600083015261162b816115ef565b9050919050565b7f5472616e73666572206661696c65642100000000000000000000000000000000600082015250565b60006116686010836115b5565b915061167382611632565b602082019050919050565b600060208201905081810360008301526116978161165b565b9050919050565b6000819050919050565b6116b96116b48261147e565b61169e565b82525050565b60008160601b9050919050565b60006116d7826116bf565b9050919050565b60006116e9826116cc565b9050919050565b6117016116fc826112f1565b6116de565b82525050565b600061171382856116a8565b60108201915061172382846116f0565b6014820191508190509392505050565b7f4e487b7100000000000000000000000000000000000000000000000000000000600052601160045260246000fd5b600061176d826111a6565b91507fffffffffffffffffffffffffffffffffffffffffffffffffffffffffffffffff820361179f5761179e611733565b5b60018201905091905056fea26469706673582212206a488d8077f41fef5b870f26b1f54df005920819047bc81ef427e9de04d60abf64736f6c634300080d0033",
  "immutableReferences": {},
  "source": "// SPDX-License-Identifier: MIT\npragma solidity >=0.4.22 <0.9.0;\n\ncontract CourseMarketplace {\n    enum State {\n        Purchased,\n        Activated,\n        Deactivated\n    }\n\n    struct Course {\n        uint256 id; // 32\n        uint256 price; // 32\n        bytes32 proof; // 32\n        address owner; // 20\n        State state; // 1\n    }\n\n    mapping(bytes32 => Course) private ownedCourses;\n    mapping(uint256 => bytes32) private ownedCourseHash;\n\n    uint256 private totalOwnedCourses;\n\n    address payable private owner;\n\n    bool public isStopped = false;\n\n    constructor() {\n        setContractOwner(msg.sender);\n    }\n\n    /// Course has already a Owner!\n    error CourseHasOwner();\n\n    /// Only owner has an access!\n    error OnlyOwner();\n\n    /// Course Is Not Created!\n    error CourseIsNotCreated();\n\n    /// Course has invalid State!\n    error InvalidState();\n\n    /// Sender is not course owner!\n    error SenderIsNotCourseOwner();\n\n    modifier onlyOwner() {\n        if (msg.sender != getContractOwner()) {\n            revert OnlyOwner();\n        }\n        _;\n    }\n\n    modifier onlyWhenNotStopped() {\n        require(!isStopped);\n        _;\n    }\n\n    modifier onlyWhenStopped() {\n        require(isStopped);\n        _;\n    }\n\n    receive() external payable {}\n\n    function withdraw(uint256 amount) external onlyOwner {\n        (bool success, ) = owner.call{value: amount}(\"\");\n        require(success, \"Transfer failed.\");\n    }\n\n    function emergencyWithdraw() external onlyWhenStopped onlyOwner {\n        (bool success, ) = owner.call{value: address(this).balance}(\"\");\n        require(success, \"Transfer failed.\");\n    }\n\n    function selfDestruct() external onlyWhenStopped onlyOwner {\n        selfdestruct(owner);\n    }\n\n    function stopContract() external onlyOwner {\n        isStopped = true;\n    }\n\n    function resumeContract() external onlyOwner {\n        isStopped = false;\n    }\n\n    function purchaseCourse(bytes16 courseId, bytes32 proof)\n        external\n        payable\n        onlyWhenNotStopped\n    {\n        bytes32 courseHash = keccak256(abi.encodePacked(courseId, msg.sender));\n\n        if (hasCourseOwnership(courseHash)) {\n            revert CourseHasOwner();\n        }\n\n        uint256 id = totalOwnedCourses++;\n        ownedCourseHash[id] = courseHash;\n        ownedCourses[courseHash] = Course({\n            id: id,\n            price: msg.value,\n            proof: proof,\n            owner: msg.sender,\n            state: State.Purchased\n        });\n    }\n\n    function activateCourse(bytes32 courseHash)\n        external\n        onlyOwner\n        onlyWhenNotStopped\n    {\n        if (!isCourseCreated(courseHash)) {\n            revert CourseIsNotCreated();\n        }\n\n        Course storage course = ownedCourses[courseHash];\n\n        if (course.state != State.Purchased) {\n            revert InvalidState();\n        }\n\n        course.state = State.Activated;\n    }\n\n    function repurchaseCourse(bytes32 courseHash)\n        external\n        payable\n        onlyWhenNotStopped\n    {\n        if (!isCourseCreated(courseHash)) {\n            revert CourseIsNotCreated();\n        }\n\n        if (!hasCourseOwnership(courseHash)) {\n            revert SenderIsNotCourseOwner();\n        }\n\n        Course storage course = ownedCourses[courseHash];\n\n        if (course.state != State.Deactivated) {\n            revert InvalidState();\n        }\n\n        course.state = State.Purchased;\n        course.price = msg.value;\n    }\n\n    function transferOwnership(address newOwner) external onlyOwner {\n        setContractOwner(newOwner);\n    }\n\n    function getCoursesCount() external view returns (uint256) {\n        return totalOwnedCourses;\n    }\n\n    function getCourseHashAtIndex(uint256 index)\n        external\n        view\n        returns (bytes32)\n    {\n        return ownedCourseHash[index];\n    }\n\n    function deactivateCourse(bytes32 courseHash)\n        external\n        onlyOwner\n        onlyWhenNotStopped\n    {\n        if (!isCourseCreated(courseHash)) {\n            revert CourseIsNotCreated();\n        }\n\n        Course storage course = ownedCourses[courseHash];\n\n        if (course.state != State.Purchased) {\n            revert InvalidState();\n        }\n\n        (bool success, ) = course.owner.call{value: course.price}(\"\");\n        require(success, \"Transfer failed!\");\n\n        course.state = State.Deactivated;\n        course.price = 0;\n    }\n\n    function getCourseByHash(bytes32 courseHash)\n        external\n        view\n        returns (Course memory)\n    {\n        return ownedCourses[courseHash];\n    }\n\n    function getContractOwner() public view returns (address) {\n        return owner;\n    }\n\n    function setContractOwner(address newOwner) private {\n        owner = payable(newOwner);\n    }\n\n    function isCourseCreated(bytes32 courseHash) private view returns (bool) {\n        return\n            ownedCourses[courseHash].owner !=\n            0x0000000000000000000000000000000000000000;\n    }\n\n    function hasCourseOwnership(bytes32 courseHash)\n        private\n        view\n        returns (bool)\n    {\n        return ownedCourses[courseHash].owner == msg.sender;\n    }\n}\n",
  "sourcePath": "/Users/cipher/Documents/react/blockchain/marketplace-eth/contracts/CourseMarketplace.sol",
  "compiler": {
    "name": "solc",
    "version": "0.8.13+commit.abaa5c0e.Emscripten.clang"
  },
  "schemaVersion": "3.4.6",
  "updatedAt": "2022-05-01T09:37:37.795Z",
  "networkType": "ethereum",
  "devdoc": {
    "kind": "dev",
    "methods": {},
    "version": 1
  },
  "userdoc": {
    "errors": {
      "CourseHasOwner()": [
        {
          "notice": "Course has already a Owner!"
        }
      ],
      "CourseIsNotCreated()": [
        {
          "notice": "Course Is Not Created!"
        }
      ],
      "InvalidState()": [
        {
          "notice": "Course has invalid State!"
        }
      ],
      "OnlyOwner()": [
        {
          "notice": "Only owner has an access!"
        }
      ],
      "SenderIsNotCourseOwner()": [
        {
          "notice": "Sender is not course owner!"
        }
      ]
    },
    "kind": "user",
    "methods": {},
    "version": 1
  }
}