{
  "contractName": "CourseMarketplace",
  "abi": [
    {
      "inputs": [],
      "stateMutability": "nonpayable",
      "type": "constructor"
    },
    {
      "inputs": [],
      "name": "CourseHasOwner",
      "type": "error"
    },
    {
      "inputs": [],
      "name": "CourseIsNotCreated",
      "type": "error"
    },
    {
      "inputs": [],
      "name": "InvalidState",
      "type": "error"
    },
    {
      "inputs": [],
      "name": "OnlyOwner",
      "type": "error"
    },
    {
      "inputs": [],
      "name": "SenderIsNotCourseOwner",
      "type": "error"
    },
    {
      "inputs": [
        {
          "internalType": "bytes16",
          "name": "courseId",
          "type": "bytes16"
        },
        {
          "internalType": "bytes32",
          "name": "proof",
          "type": "bytes32"
        }
      ],
      "name": "purchaseCourse",
      "outputs": [],
      "stateMutability": "payable",
      "type": "function",
      "payable": true
    },
    {
      "inputs": [
        {
          "internalType": "bytes32",
          "name": "courseHash",
          "type": "bytes32"
        }
      ],
      "name": "activateCourse",
      "outputs": [],
      "stateMutability": "nonpayable",
      "type": "function"
    },
    {
      "inputs": [
        {
          "internalType": "bytes32",
          "name": "courseHash",
          "type": "bytes32"
        }
      ],
      "name": "repurchaseCourse",
      "outputs": [],
      "stateMutability": "payable",
      "type": "function",
      "payable": true
    },
    {
      "inputs": [
        {
          "internalType": "address",
          "name": "newOwner",
          "type": "address"
        }
      ],
      "name": "transferOwnership",
      "outputs": [],
      "stateMutability": "nonpayable",
      "type": "function"
    },
    {
      "inputs": [],
      "name": "getCoursesCount",
      "outputs": [
        {
          "internalType": "uint256",
          "name": "",
          "type": "uint256"
        }
      ],
      "stateMutability": "view",
      "type": "function",
      "constant": true
    },
    {
      "inputs": [
        {
          "internalType": "uint256",
          "name": "index",
          "type": "uint256"
        }
      ],
      "name": "getCourseHashAtIndex",
      "outputs": [
        {
          "internalType": "bytes32",
          "name": "",
          "type": "bytes32"
        }
      ],
      "stateMutability": "view",
      "type": "function",
      "constant": true
    },
    {
      "inputs": [
        {
          "internalType": "bytes32",
          "name": "courseHash",
          "type": "bytes32"
        }
      ],
      "name": "deactivateCourse",
      "outputs": [],
      "stateMutability": "nonpayable",
      "type": "function"
    },
    {
      "inputs": [
        {
          "internalType": "bytes32",
          "name": "courseHash",
          "type": "bytes32"
        }
      ],
      "name": "getCourseByHash",
      "outputs": [
        {
          "components": [
            {
              "internalType": "uint256",
              "name": "id",
              "type": "uint256"
            },
            {
              "internalType": "uint256",
              "name": "price",
              "type": "uint256"
            },
            {
              "internalType": "bytes32",
              "name": "proof",
              "type": "bytes32"
            },
            {
              "internalType": "address",
              "name": "owner",
              "type": "address"
            },
            {
              "internalType": "enum CourseMarketplace.State",
              "name": "state",
              "type": "uint8"
            }
          ],
          "internalType": "struct CourseMarketplace.Course",
          "name": "",
          "type": "tuple"
        }
      ],
      "stateMutability": "view",
      "type": "function",
      "constant": true
    },
    {
      "inputs": [],
      "name": "getContractOwner",
      "outputs": [
        {
          "internalType": "address",
          "name": "",
          "type": "address"
        }
      ],
      "stateMutability": "view",
      "type": "function",
      "constant": true
    }
  ],
  "bytecode": "0x608060405234801561001057600080fd5b506100203361002560201b60201c565b610069565b80600360006101000a81548173ffffffffffffffffffffffffffffffffffffffff021916908373ffffffffffffffffffffffffffffffffffffffff16021790555050565b611140806100786000396000f3fe6080604052600436106100865760003560e01c806362e4e6ac1161005957806362e4e6ac146101265780636d11290b14610163578063935d7e6d146101a0578063d76821cb146101c9578063f2fde38b146101e557610086565b80631dcdf2151461008b57806339262572146100b6578063442890d5146100df5780636136e1eb1461010a575b600080fd5b34801561009757600080fd5b506100a061020e565b6040516100ad9190610bc1565b60405180910390f35b3480156100c257600080fd5b506100dd60048036038101906100d89190610c17565b610218565b005b3480156100eb57600080fd5b506100f4610379565b6040516101019190610c85565b60405180910390f35b610124600480360381019061011f9190610c17565b6103a3565b005b34801561013257600080fd5b5061014d60048036038101906101489190610c17565b6104df565b60405161015a9190610dac565b60405180910390f35b34801561016f57600080fd5b5061018a60048036038101906101859190610df3565b6105ba565b6040516101979190610e2f565b60405180910390f35b3480156101ac57600080fd5b506101c760048036038101906101c29190610c17565b6105d7565b005b6101e360048036038101906101de9190610ea2565b610817565b005b3480156101f157600080fd5b5061020c60048036038101906102079190610f0e565b6109b7565b005b6000600254905090565b610220610379565b73ffffffffffffffffffffffffffffffffffffffff163373ffffffffffffffffffffffffffffffffffffffff1614610284576040517f5fc483c500000000000000000000000000000000000000000000000000000000815260040160405180910390fd5b61028d81610a2f565b6102c3576040517f4db0c48300000000000000000000000000000000000000000000000000000000815260040160405180910390fd5b60008060008381526020019081526020016000209050600060028111156102ed576102ec610ccd565b5b8160030160149054906101000a900460ff16600281111561031157610310610ccd565b5b14610348576040517fbaf3f0f700000000000000000000000000000000000000000000000000000000815260040160405180910390fd5b60018160030160146101000a81548160ff021916908360028111156103705761036f610ccd565b5b02179055505050565b6000600360009054906101000a900473ffffffffffffffffffffffffffffffffffffffff16905090565b6103ac81610a2f565b6103e2576040517f4db0c48300000000000000000000000000000000000000000000000000000000815260040160405180910390fd5b6103eb81610a9d565b610421576040517fcce31cc400000000000000000000000000000000000000000000000000000000815260040160405180910390fd5b6000806000838152602001908152602001600020905060028081111561044a57610449610ccd565b5b8160030160149054906101000a900460ff16600281111561046e5761046d610ccd565b5b146104a5576040517fbaf3f0f700000000000000000000000000000000000000000000000000000000815260040160405180910390fd5b60008160030160146101000a81548160ff021916908360028111156104cd576104cc610ccd565b5b02179055503481600101819055505050565b6104e7610b4e565b6000808381526020019081526020016000206040518060a00160405290816000820154815260200160018201548152602001600282015481526020016003820160009054906101000a900473ffffffffffffffffffffffffffffffffffffffff1673ffffffffffffffffffffffffffffffffffffffff1673ffffffffffffffffffffffffffffffffffffffff1681526020016003820160149054906101000a900460ff16600281111561059d5761059c610ccd565b5b60028111156105af576105ae610ccd565b5b815250509050919050565b600060016000838152602001908152602001600020549050919050565b6105df610379565b73ffffffffffffffffffffffffffffffffffffffff163373ffffffffffffffffffffffffffffffffffffffff1614610643576040517f5fc483c500000000000000000000000000000000000000000000000000000000815260040160405180910390fd5b61064c81610a2f565b610682576040517f4db0c48300000000000000000000000000000000000000000000000000000000815260040160405180910390fd5b60008060008381526020019081526020016000209050600060028111156106ac576106ab610ccd565b5b8160030160149054906101000a900460ff1660028111156106d0576106cf610ccd565b5b14610707576040517fbaf3f0f700000000000000000000000000000000000000000000000000000000815260040160405180910390fd5b60008160030160009054906101000a900473ffffffffffffffffffffffffffffffffffffffff1673ffffffffffffffffffffffffffffffffffffffff16826001015460405161075590610f6c565b60006040518083038185875af1925050503d8060008114610792576040519150601f19603f3d011682016040523d82523d6000602084013e610797565b606091505b50509050806107db576040517f08c379a00000000000000000000000000000000000000000000000000000000081526004016107d290610fde565b60405180910390fd5b60028260030160146101000a81548160ff0219169083600281111561080357610802610ccd565b5b021790555060008260010181905550505050565b6000823360405160200161082c929190611067565b60405160208183030381529060405280519060200120905061084d81610a9d565b15610884576040517fb0fc2d9700000000000000000000000000000000000000000000000000000000815260040160405180910390fd5b600060026000815480929190610899906110c2565b9190505590508160016000838152602001908152602001600020819055506040518060a001604052808281526020013481526020018481526020013373ffffffffffffffffffffffffffffffffffffffff1681526020016000600281111561090457610903610ccd565b5b81525060008084815260200190815260200160002060008201518160000155602082015181600101556040820151816002015560608201518160030160006101000a81548173ffffffffffffffffffffffffffffffffffffffff021916908373ffffffffffffffffffffffffffffffffffffffff16021790555060808201518160030160146101000a81548160ff021916908360028111156109a9576109a8610ccd565b5b021790555090505050505050565b6109bf610379565b73ffffffffffffffffffffffffffffffffffffffff163373ffffffffffffffffffffffffffffffffffffffff1614610a23576040517f5fc483c500000000000000000000000000000000000000000000000000000000815260040160405180910390fd5b610a2c81610b0a565b50565b60008073ffffffffffffffffffffffffffffffffffffffff1660008084815260200190815260200160002060030160009054906101000a900473ffffffffffffffffffffffffffffffffffffffff1673ffffffffffffffffffffffffffffffffffffffff1614159050919050565b60003373ffffffffffffffffffffffffffffffffffffffff1660008084815260200190815260200160002060030160009054906101000a900473ffffffffffffffffffffffffffffffffffffffff1673ffffffffffffffffffffffffffffffffffffffff16149050919050565b80600360006101000a81548173ffffffffffffffffffffffffffffffffffffffff021916908373ffffffffffffffffffffffffffffffffffffffff16021790555050565b6040518060a00160405280600081526020016000815260200160008019168152602001600073ffffffffffffffffffffffffffffffffffffffff16815260200160006002811115610ba257610ba1610ccd565b5b81525090565b6000819050919050565b610bbb81610ba8565b82525050565b6000602082019050610bd66000830184610bb2565b92915050565b600080fd5b6000819050919050565b610bf481610be1565b8114610bff57600080fd5b50565b600081359050610c1181610beb565b92915050565b600060208284031215610c2d57610c2c610bdc565b5b6000610c3b84828501610c02565b91505092915050565b600073ffffffffffffffffffffffffffffffffffffffff82169050919050565b6000610c6f82610c44565b9050919050565b610c7f81610c64565b82525050565b6000602082019050610c9a6000830184610c76565b92915050565b610ca981610ba8565b82525050565b610cb881610be1565b82525050565b610cc781610c64565b82525050565b7f4e487b7100000000000000000000000000000000000000000000000000000000600052602160045260246000fd5b60038110610d0d57610d0c610ccd565b5b50565b6000819050610d1e82610cfc565b919050565b6000610d2e82610d10565b9050919050565b610d3e81610d23565b82525050565b60a082016000820151610d5a6000850182610ca0565b506020820151610d6d6020850182610ca0565b506040820151610d806040850182610caf565b506060820151610d936060850182610cbe565b506080820151610da66080850182610d35565b50505050565b600060a082019050610dc16000830184610d44565b92915050565b610dd081610ba8565b8114610ddb57600080fd5b50565b600081359050610ded81610dc7565b92915050565b600060208284031215610e0957610e08610bdc565b5b6000610e1784828501610dde565b91505092915050565b610e2981610be1565b82525050565b6000602082019050610e446000830184610e20565b92915050565b60007fffffffffffffffffffffffffffffffff0000000000000000000000000000000082169050919050565b610e7f81610e4a565b8114610e8a57600080fd5b50565b600081359050610e9c81610e76565b92915050565b60008060408385031215610eb957610eb8610bdc565b5b6000610ec785828601610e8d565b9250506020610ed885828601610c02565b9150509250929050565b610eeb81610c64565b8114610ef657600080fd5b50565b600081359050610f0881610ee2565b92915050565b600060208284031215610f2457610f23610bdc565b5b6000610f3284828501610ef9565b91505092915050565b600081905092915050565b50565b6000610f56600083610f3b565b9150610f6182610f46565b600082019050919050565b6000610f7782610f49565b9150819050919050565b600082825260208201905092915050565b7f5472616e73666572206661696c65642100000000000000000000000000000000600082015250565b6000610fc8601083610f81565b9150610fd382610f92565b602082019050919050565b60006020820190508181036000830152610ff781610fbb565b9050919050565b6000819050919050565b61101961101482610e4a565b610ffe565b82525050565b60008160601b9050919050565b60006110378261101f565b9050919050565b60006110498261102c565b9050919050565b61106161105c82610c64565b61103e565b82525050565b60006110738285611008565b6010820191506110838284611050565b6014820191508190509392505050565b7f4e487b7100000000000000000000000000000000000000000000000000000000600052601160045260246000fd5b60006110cd82610ba8565b91507fffffffffffffffffffffffffffffffffffffffffffffffffffffffffffffffff82036110ff576110fe611093565b5b60018201905091905056fea2646970667358221220cb156f622d3d82cf80636e402b8c7f1c77aa48371376ce2e6c270802c4d03c4164736f6c634300080d0033",
  "immutableReferences": {},
  "source": "// SPDX-License-Identifier: MIT\npragma solidity >=0.4.22 <0.9.0;\n\ncontract CourseMarketplace {\n    enum State {\n        Purchased,\n        Activated,\n        Deactivated\n    }\n\n    struct Course {\n        uint256 id; // 32\n        uint256 price; // 32\n        bytes32 proof; // 32\n        address owner; // 20\n        State state; // 1\n    }\n\n    mapping(bytes32 => Course) private ownedCourses;\n    mapping(uint256 => bytes32) private ownedCourseHash;\n\n    uint256 private totalOwnedCourses;\n\n    address payable private owner;\n\n    constructor() {\n        setContractOwner(msg.sender);\n    }\n\n    /// Course has already a Owner!\n    error CourseHasOwner();\n\n    /// Only owner has an access!\n    error OnlyOwner();\n\n    /// Course Is Not Created!\n    error CourseIsNotCreated();\n\n    /// Course has invalid State!\n    error InvalidState();\n\n    /// Sender is not course owner!\n    error SenderIsNotCourseOwner();\n\n    modifier onlyOwner() {\n        if (msg.sender != getContractOwner()) {\n            revert OnlyOwner();\n        }\n        _;\n    }\n\n    function purchaseCourse(bytes16 courseId, bytes32 proof) external payable {\n        bytes32 courseHash = keccak256(abi.encodePacked(courseId, msg.sender));\n\n        if (hasCourseOwnership(courseHash)) {\n            revert CourseHasOwner();\n        }\n\n        uint256 id = totalOwnedCourses++;\n        ownedCourseHash[id] = courseHash;\n        ownedCourses[courseHash] = Course({\n            id: id,\n            price: msg.value,\n            proof: proof,\n            owner: msg.sender,\n            state: State.Purchased\n        });\n    }\n\n    function activateCourse(bytes32 courseHash) external onlyOwner {\n        if (!isCourseCreated(courseHash)) {\n            revert CourseIsNotCreated();\n        }\n\n        Course storage course = ownedCourses[courseHash];\n\n        if (course.state != State.Purchased) {\n            revert InvalidState();\n        }\n\n        course.state = State.Activated;\n    }\n\n    function repurchaseCourse(bytes32 courseHash) external payable {\n        if (!isCourseCreated(courseHash)) {\n            revert CourseIsNotCreated();\n        }\n\n        if (!hasCourseOwnership(courseHash)) {\n            revert SenderIsNotCourseOwner();\n        }\n\n        Course storage course = ownedCourses[courseHash];\n\n        if (course.state != State.Deactivated) {\n            revert InvalidState();\n        }\n\n        course.state = State.Purchased;\n        course.price = msg.value;\n    }\n\n    function transferOwnership(address newOwner) external onlyOwner {\n        setContractOwner(newOwner);\n    }\n\n    function getCoursesCount() external view returns (uint256) {\n        return totalOwnedCourses;\n    }\n\n    function getCourseHashAtIndex(uint256 index)\n        external\n        view\n        returns (bytes32)\n    {\n        return ownedCourseHash[index];\n    }\n\n    function deactivateCourse(bytes32 courseHash) external onlyOwner {\n        if (!isCourseCreated(courseHash)) {\n            revert CourseIsNotCreated();\n        }\n\n        Course storage course = ownedCourses[courseHash];\n\n        if (course.state != State.Purchased) {\n            revert InvalidState();\n        }\n\n        (bool success, ) = course.owner.call{value: course.price}(\"\");\n        require(success, \"Transfer failed!\");\n\n        course.state = State.Deactivated;\n        course.price = 0;\n    }\n\n    function getCourseByHash(bytes32 courseHash)\n        external\n        view\n        returns (Course memory)\n    {\n        return ownedCourses[courseHash];\n    }\n\n    function getContractOwner() public view returns (address) {\n        return owner;\n    }\n\n    function setContractOwner(address newOwner) private {\n        owner = payable(newOwner);\n    }\n\n    function isCourseCreated(bytes32 courseHash) private view returns (bool) {\n        return\n            ownedCourses[courseHash].owner !=\n            0x0000000000000000000000000000000000000000;\n    }\n\n    function hasCourseOwnership(bytes32 courseHash)\n        private\n        view\n        returns (bool)\n    {\n        return ownedCourses[courseHash].owner == msg.sender;\n    }\n}\n",
  "sourcePath": "/Users/cipher/Documents/react/blockchain/marketplace-eth/contracts/CourseMarketplace.sol",
  "compiler": {
    "name": "solc",
    "version": "0.8.13+commit.abaa5c0e.Emscripten.clang"
  },
  "schemaVersion": "3.4.6",
  "updatedAt": "2022-04-29T14:26:30.905Z",
  "networkType": "ethereum",
  "devdoc": {
    "kind": "dev",
    "methods": {},
    "version": 1
  },
  "userdoc": {
    "errors": {
      "CourseHasOwner()": [
        {
          "notice": "Course has already a Owner!"
        }
      ],
      "CourseIsNotCreated()": [
        {
          "notice": "Course Is Not Created!"
        }
      ],
      "InvalidState()": [
        {
          "notice": "Course has invalid State!"
        }
      ],
      "OnlyOwner()": [
        {
          "notice": "Only owner has an access!"
        }
      ],
      "SenderIsNotCourseOwner()": [
        {
          "notice": "Sender is not course owner!"
        }
      ]
    },
    "kind": "user",
    "methods": {},
    "version": 1
  }
}